:020000040800F2
:10000000E80900202902000803210008751C0008E7
:10001000012100088D0400083927000800000000B5
:1000200000000000000000000000000007210008A0
:10003000970400080000000005210008272100089F
:10004000430200084302000843020008430200087C
:10005000430200084302000843020008430200086C
:10006000430200084302000843020008430200085C
:10007000430200084302000843020008430200084C
:10008000430200084302000843020008430200083C
:10009000430200084302000843020008430200082C
:1000A000430200084302000843020008430200081C
:1000B000430200084302000843020008430200080C
:1000C00043020008430200084302000843020008FC
:1000D00043020008430200084302000843020008EC
:1000E00043020008430200084302000843020008DC
:1000F00043020008430200084302000843020008CC
:1001000043020008430200084302000843020008BB
:100110004D2400085924000843020008D12100089A
:10012000430200084302000843020008430200089B
:10013000430200084302000843020008430200088B
:10014000430200084302000843020008430200087B
:10015000430200084302000843020008430200086B
:10016000430200084302000843020008430200085B
:100170004302000843020008430200080000000098
:10018000430200084302000800F002F800F03CF8C7
:100190000AA090E8000C82448344AAF10107DA45E2
:1001A00001D100F031F8AFF2090EBAE80F0013F0F8
:1001B000010F18BFFB1A43F001031847A02E0000DF
:1001C000C02E0000103A24BF78C878C1FAD8520770
:1001D00024BF30C830C144BF04680C6070470000C1
:1001E0000023002400250026103A28BF78C1FBD840
:1001F000520728BF30C148BF0B6070471FB502F0DF
:100200001BFF1FBD10B510BD00F0CFF81146FFF762
:10021000F5FF02F035FC00F0EDF803B4FFF7F2FF54
:1002200003BC00F0F5F80000094880470948004782
:10023000FEE7FEE7FEE7FEE7FEE7FEE7FEE7FEE796
:10024000FEE7FEE704480549054A064B70470000F3
:10025000C121000889010008E8030020E809002006
:10026000E8050020E805002053EA020C00F0698050
:100270002DE9F04B4FF00006002B1FBFB3FA83F5BA
:1002800003FA05F424FA05F65E4012BF1643B2FAEB
:1002900082F502FA05F4C5F120051EBF22FA05FC1D
:1002A00044EA0C04203556EA044C4FEA144418BFC3
:1002B000641C4FF000084FF00009904271EB030CF2
:1002C00039D3002919BFB1FA81F701FA07F6B0FA5C
:1002D00080F700FA07F6C7F120071EBF20FA07FCD7
:1002E00046EA0C062037B6FBF4FCA7EB0507103FE7
:1002F00007F01F0BCBF120060CFA0BFB2CFA06F6CD
:1003000044BFB3460026202FA4BF5E464FF0000B2B
:100310005BEA060C08BF4FF0010B19EB0B09ABFBB6
:10032000027C48EB0608C01B06FB02CC0BFB03CC8F
:1003300071EB0C01C1E70B46024641464846BDE859
:10034000F08B13B54FF000004FF00001AFF30080C9
:10035000BDE81C4070474FF0000200B513469446BC
:100360009646203922BFA0E80C50A0E80C50B1F10D
:100370002001BFF4F7AF090728BFA0E80C5048BF21
:100380000CC05DF804EB890028BF40F8042B08BFBF
:10039000704748BF20F8022B11F0804F18BF00F8BB
:1003A000012B7047704770477047754600F02CF876
:1003B000AE4605006946534620F00700854618B052
:1003C00020B5FFF73FFFBDE820404FF000064FF09B
:1003D00000074FF000084FF0000B21F00701AC467A
:1003E000ACE8C009ACE8C009ACE8C009ACE8C00999
:1003F0008D46704710B50446AFF300802046BDE837
:100400001040FFF70ABF0000004870478403002037
:1004100001491820ABBEFEE726000200704700002D
:10042000F8B5194C00270546E770FE2829D020783A
:1004300038B302F093FA012630B1A7700421684660
:1004400002F0A2FC042801D0E67017E09DF800003D
:10045000A84201D0032010E09DF80110022901D02C
:1004600004200AE09DF80210801C0844C0439DF857
:100470000320C0B2824203D00220E0700020F8BD09
:10048000A1700120F8BD000074000020FEE780226A
:10049000282102F0A7BD704772B6FEE72DE9F041B2
:1004A0000446876D00F066F9064694F8350000258D
:1004B000022806D08020606584F834500120BDE811
:1004C000F0812068016821F016010160206841690F
:1004D00021F080014161206C08B9A06C20B1206836
:1004E000016821F0080101602068016821F0010124
:1004F00001600CE000F03EF9801B052807D92020A0
:100500006065032084F8350084F83450D7E720680C
:100510000068C007EED194F85C103F208840B860B6
:10052000012084F8350084F834500020C7E790F8A3
:100530003510022903D08021416501207047052133
:1005400080F835100068016821F001010160002089
:100550007047000070B5044600F00CF90546601CB9
:1005600002D004480078044400F004F9401BA04283
:10057000FAD370BD640000202DE9F84FDFF8BCA16C
:100580000022012503264FF00F090AF1040BAAF1FE
:10059000040E00BF0B6805FA02F42340A34270D199
:1005A0000F7907F00307012F01D0022F16D18768BA
:1005B0004FEA420806FA08FC27EA0C07D1F80CC0FB
:1005C0000CFA08FC4CEA070CC0F808C04768A743BF
:1005D0000C79C4F3001494403C4344600C79E44328
:1005E000A4070AD0C4684FEA420C06FA0CF7BC43D1
:1005F0008F6807FA0CF72743C7600C7904F00304EF
:10060000022C12D1D40800EB840CDCF820405707F0
:10061000FF0E09FA07F824EA0804D1F8108008FA56
:1006200007F848EA0408CCF8208004684FEA420C36
:1006300006FA0CF7BC430F7907F0030707FA0CF72B
:10064000274307604C6814F4403F70D03C4C276847
:1006500047F480472760246822F0030704F48044AD
:100660000094384C07EB040CDCF8084897074FEA75
:10067000177809FA08F7BC43334FB84202D1002774
:1006800024E054E0314FB84201D101271EE0304F41
:10069000B84201D1022719E02E4FB84201D10327F9
:1006A00014E02D4FB84201D104270FE02B4FB84280
:1006B00001D105270AE02A4FB84201D1062705E0FB
:1006C000284FB84201D1072700E0082707FA08F7AA
:1006D0002743CCF80878DAF800405746D1F804C030
:1006E0009C435FEACC2C00D51C433C60DBF8004007
:1006F0005F46D1F804C09C435FEA8C2C00D51C43B4
:100700003C60DEF800407746D1F804C09C435FEAC5
:100710008C3C00D51C433C60084F083F3C68D1F836
:1007200004C09C435FEACC3C00D51C433C60521C97
:10073000102AFFF42FAFBDE8F88F0000083C0140FD
:1007400044380240003001400000024000040240F2
:1007500000080240000C0240001002400014024059
:1007600000180240001C02400AB181617047090470
:10077000FBE700000148806870470000640000202B
:10078000024881680278114481607047640000204B
:100790000B4810B5016841F400710160016841F433
:1007A00080610160016841F480710160032000F004
:1007B0006FF80F2000F006F800F024F8002010BDBC
:1007C000003C024070B50D4D04464FF47A71287814
:1007D000B1FBF0F00A490968B1FBF0F000F00CFB46
:1007E00048B9102C07D200222146501E00F030F8E4
:1007F00000206C6070BD012070BD0000640000200E
:10080000700000200A4808B5016841F48041016089
:10081000006800F4804000900548001F016841F026
:1008200080510160006800F08050009008BD000019
:1008300044380240002809DB00F01F0201219140EA
:100840004009800000F1E020C0F80011704700006E
:10085000F0B40E4B1B680C46C3F30223C3F107052B
:10086000042D00D90425191D072901D2002300E019
:10087000DB1E012606FA05F1491E214099409E40E3
:10088000761E16403143F0BC01F078BF0CED00E05D
:10089000064900F0070208684FF6FF03184040EAD7
:1008A0000220034A10430860704700000CED00E08E
:1008B0000000FA052DE9F0470E46050065D0DFF887
:1008C0001481D8F80000F7B200F00700B04207D258
:1008D00088F80070D8F8000000F00700B04254D14A
:1008E00028683D4C810712D5400703D5206840F4A5
:1008F000E05020602878000703D5206840F460406D
:1009000020602068A96820F0F00008432060287863
:10091000C0072DD0304968680839012812D0022854
:1009200013D0032811D00968890700292DDA21681E
:1009300021F0030101432160FFF71CFF814641F2D2
:10094000883A0EE009688903EFE709688901ECE756
:10095000FFF710FFA0EB0901514502D90320BDE8C4
:10096000F0872068696800F00C00B0EB810FEFD1D0
:10097000D8F80010404601F00701B14207D90770CE
:10098000006800F00700B04201D00120E7E72878B6
:10099000400705D52068E96820F4E050084320604E
:1009A0002878000706D52068296920F4604040EACD
:1009B000C100206000F038F82168084AC1F3031133
:1009C000515CC8400649086006480068FFF7FAFE17
:1009D0000020C4E7003C02400838024042300008D2
:1009E000700000206800002004480549006809687C
:1009F000044AC1F38221515CC84070477000002056
:100A00000838024052300008044805490068096867
:100A1000044AC1F34231515CC84070477000002065
:100A20000838024052300008154810B5006810F030
:100A30000C02144813D01449042A0FD0082A0ED1EE
:100A40000F4C241F2268236802F03F025B0207D587
:100A50002068C0F38810A0FB010106E0084610BD25
:100A60002168C1F38811A1FB00010023FFF7FCFB03
:100A70002168C1F30141491C4900B0FBF1F010BDF0
:100A8000083802400024F40040787D012DE9F84F39
:100A900004006ED02078DFF84C93C007A9F104055C
:100AA0004AD009F104000168C1F38101012908D08D
:100AB0000068C0F3810002280AD1D9F80000400282
:100AC00006D52868800337D560680028E1D033E078
:100AD0006068B0F5803F10D0B0F5A02F286810D026
:100AE00020F480302860286820F480202860606826
:100AF000A8B1FFF73FFE06460DE0286840F48030BD
:100B0000F4E740F480202860F7E700BFFFF732FEEB
:100B1000801B642873D828688003F7D50CE0FFF7A2
:100B200029FE064605E000BFFFF724FE801B64286F
:100B3000F0D828688003F7D42078DFF8AC828007EB
:100B40004FF0000A3ED5A748001D016811F00C0FB8
:100B500008D00068C0F3810002280BD1D9F800004A
:100B6000400207D42868800716D5E068012800D124
:100B700012E033E1E068B8B10120C8F80000FFF7E7
:100B8000F9FD064605E000BFFFF7F4FD801B0228D3
:100B9000C0D828688007F7D52868216920F0F800B8
:100BA00040EAC10028600DE0C8F800A0FFF7E2FDB0
:100BB000064604E0FFF7DEFD801B02281FD82868E8
:100BC0008007F7D42078000722D5864F87486169CF
:100BD000703771B101210160FFF7CCFD064604E0DA
:100BE000FFF7C8FD801B022809D838688007F7D5B1
:100BF0000EE0C0F800A0FFF7BDFD064605E082E06C
:100C0000FFF7B8FD801B02287DD838688007F7D42D
:100C10002078400768D5DFF8CCB100270BF13C0BFA
:100C2000DBF80000C0000BD4DBF8001041F080516D
:100C3000CBF80010DBF80000012700F08050009096
:100C40006B4E3068C00510D4306840F4807030605E
:100C5000FFF790FD009005E0FFF78CFD0099401A2A
:100C6000022850D83068C005F6D55E4EA0686C36B4
:100C700001280FD00528306810D020F00100306026
:100C8000306820F004003060A068B8B1FFF772FD52
:100C900000900FE0306840F00100F4E740F00400FD
:100CA0003060F7E7FFF766FD0099411A41F288309E
:100CB000814266D830688007F4D50EE0FFF75AFD10
:100CC000009007E0FFF756FD0099411A41F2883085
:100CD000814256D830688007F4D42FB1DBF8001079
:100CE00021F08051CBF80010A069C8B33D49091D1F
:100CF0000968C1F3810102294AD00228504607D071
:100D0000C8F8600000E03CE0FFF734FD04463BE03B
:100D10004746C8F86000FFF72DFD064605E000BF16
:100D2000FFF728FD801B02282BD828688001F7D404
:100D3000D4E907010843A16A2E4A490802EB0141A0
:100D4000626A41EA8211084394F82C1040EA01617A
:100D5000C9F8001001203866FFF70CFD044606E0D4
:100D60003EE000BFFFF706FD001B022809D82868F7
:100D70008001F7D534E000BFFFF7FCFC001B022820
:100D800002D90320BDE8F88F28688001F4D427E059
:100D90000128F7D0D9F80000E26900F480019142FF
:100DA0001CD1226A00F03F01914217D147F6C07171
:100DB000626A0140B1EB821F10D1A26A4FF0FF338B
:100DC00000F4403103EB5202B1EB024F06D194F82C
:100DD0002C1000F07060B0EB016F01D00120D1E762
:100DE0000020CFE70438024000004742800E47420F
:100DF000007000400000FFFF10B5401EB0F1807F82
:100E000001D3012010BD4FF0E02460610F21601775
:100E100001F0B4FC0020A06107202061002010BD7B
:100E20007047704710B590F83C20012A22D001226B
:100E300080F83C20CA688C6822F4407222434C68D7
:100E400022F4806222430C6822F4006222430C697F
:100E500022F4805222434C6922F400522243C96991
:100E6000002322F480420A4301684A6480F83C303F
:100E7000002010BD022010BD70B590F83C20012A62
:100E800032D0012480F83C40022280F83D200368E3
:100E90005A689D6822F070060A6832435A60134B04
:100EA00002689A4214D0B2F1804F11D0104B9A428E
:100EB0000ED0104B9A420BD00F4B9A4208D00F4BDA
:100EC0009A4205D00E4B9A4202D00E4B9A4204D160
:100ED000496825F080031943916080F83D40002166
:100EE00080F83C10084670BD022070BD0000014033
:100EF0000004004000080040000C004000040140D5
:100F0000004001400018004010B5040003D094F8E0
:100F10003D0010B107E0012010BD002084F83C0026
:100F2000204600F01FF8022084F83D00211D2068B3
:100F300001F054F9012084F8460084F83E0084F85A
:100F40003F0084F8400084F8410084F8420084F8AF
:100F5000430084F8440084F8450084F83D000020F4
:100F600010BD000008B500680B49884212D10B483B
:100F7000016841F0200101600068012200F02000BA
:100F8000009011463720FFF763FCBDE8084037208A
:100F9000FFF750BC08BD000000140040403802407C
:100FA00090F83D10012901D001207047022180F8FE
:100FB0003D100168CA6842F00102CA600068114928
:100FC000884214D0B0F1804F11D00F4988420ED022
:100FD0000E4988420BD00E49884208D00D498842FC
:100FE00005D00D49884202D00C49884204D181685D
:100FF00001F00701062903D0016841F001010160F9
:10100000002070470000014000040040000800403C
:10101000000C004000040140004001400018004066
:101020002DE9F0410D46040003D094F83D0018B1BD
:1010300008E00120BDE8F081002084F83C00204653
:1010400000F040F8022084F83D002068816844F2F6
:10105000070291438160211D206801F0BFF82268DA
:1010600090689169166A2B68AF69034340F20330B8
:10107000814341EA0721A868EF6908434FF6FC4124
:101080008843E96840EA0720014328692F6A000184
:1010900040EA0730084369686D6926F0AA0646EA07
:1010A0000515294393602268906154F8460B01624C
:1010B000012004F81F09E0752076E0762077A075FE
:1010C0000020B7E7F0B587B0044614216846FFF763
:1010D00042F9434923680024414810390225414A16
:1010E000414EB3F1804F14D0404FBB4242D1026811
:1010F00042F002020260006800F0020005900868F9
:1011000040F002000860086800F0020005903020FE
:1011100044E0036843F001030360006800F001004D
:101120000590086840F001000860086800F00100C0
:101130000590086840F0020008600868012700F088
:10114000020005904FF400400090CDE90154CDE934
:10115000034769461046FFF70FFA08200090CDE9D3
:101160000154CDE903476946304600BFFFF704FA52
:1011700007B0F0BD1E4FBB4216D1026842F0040218
:101180000260006800F004000590086840F002006A
:101190000860086800F002000590C0200090CDE9CA
:1011A00001546946304618E0124EB342E0D103685C
:1011B00043F008030360006800F008000590086829
:1011C00040F0010008600868694600F001000590E1
:1011D00003200090CDE901541046CDE90345C5E751
:1011E0004038024000000240000402400004004079
:1011F00000080040000C004070B590F83E600446C6
:1012000090F83F5090F8423090F84320022021B1EE
:1012100004290ED0012E1BD114E0012E18D1012B70
:1012200016D184F83E0084F8420001220021206893
:1012300020E0012D0CD1012A0AD184F83F0084F866
:10124000430014E0012D03D1012B01D1012A01D06B
:10125000012070BD84F83E0084F83F0084F842000D
:1012600084F8430001220021206801F01FF80122C8
:101270000421206801F01AF82068016841F001019A
:101280000160002070BD70472DE9F0410446006800
:10129000C66805694FF00007A90713D5B10711D536
:1012A000F91E0161012020772068806980072046AF
:1012B00002D0FFF7E8FF04E000F0A8F8204600F0B5
:1012C0004DF92777680716D5700714D521686FF098
:1012D00004000861022020772068806910F4407FB4
:1012E000204602D0FFF7CFFF04E000F08FF8204641
:1012F00000F034F92777280715D5300713D5216872
:101300006FF008000861042020772068C06980071A
:10131000204602D0FFF7B7FF04E000F077F8204640
:1013200000F01CF92777E80616D5F00614D52168D9
:101330006FF010000861082020772068C06910F461
:10134000407F204602D0FFF79EFF04E000F05EF8E9
:10135000204600F003F92777E80708D0F00706D009
:1013600021686FF001000861204600F05DF9280651
:1013700008D5300606D521686FF080000861204648
:10138000FFF74EFD680608D5700606D521686FF098
:1013900040000861204600F067F9A8060AD5B006AB
:1013A00008D521686FF0200008612046BDE8F041B3
:1013B000FFF737BDBDE8F08110B586B004461421B3
:1013C0006846FEF7C8FF0E492068884216D10D48CE
:1013D0000021026842F004020260006800F004008C
:1013E00005904FF4707000900220CDE901010320B8
:1013F000CDE9031069460448FFF7BEF806B010BDFA
:10140000000401403038024000080240704770B5C7
:10141000044690F83C0000260D4601280FD001201C
:1014200084F83C006AB1042A1DD0082A2FD00C2A67
:101430003FD00126002084F83C00304670BD0220D9
:1014400070BD206800F040FF2068816941F008010C
:1014500081612068816921F00401816120688169CE
:101460002A69114311E0206800F05EFF206881695D
:1014700041F4006181612068816921F480618161AA
:10148000206881692A6941EA02218161D2E72068E6
:1014900000F080FF2068C16941F00801C161206847
:1014A000C16921F00401C1612068C1692A69114341
:1014B00011E0206800F0A2FF2068C16941F40061DA
:1014C000C1612068C16921F48061C1612068C1697E
:1014D0002A6941EA0221C161ACE710B5040003D0DA
:1014E00094F83D0010B107E0012010BD002084F801
:1014F0003C00204600F01EF8022084F83D00211D2B
:10150000206800F06BFE012084F8460084F83E005D
:1015100084F83F0084F8400084F8410084F84200D9
:1015200084F8430084F8440084F8450084F83D00C2
:10153000002010BD08B500680649884208D1064859
:10154000016841F002010160006800F002000090B3
:1015500008BD00000004014044380240704700000C
:1015600010B50446022249B104290ED0082913D02F
:1015700094F84100012816D0012010BD94F83E00D7
:101580000128F9D184F83E200FE094F83F000128AB
:10159000F2D184F83F2008E094F840000128EBD114
:1015A00084F8402001E084F841200122206800F006
:1015B0007DFE16492068164A884201D0904203D128
:1015C000436C43F4004343642068884213D0B0F175
:1015D000804F10D00F4988420DD00F4988420AD061
:1015E0000E49884207D0904205D00D49884202D06A
:1015F0000C49884204D1816801F00701062903D013
:10160000016841F001010160002010BD00000140AF
:10161000000401400004004000080040000C0040AD
:10162000004001400018004010B500680C49884295
:1016300015D101F0A1FA0B4C207101F011FB4042D1
:10164000607194F9041094F9010001F0B1FA94F971
:10165000051094F90200BDE8104001F01DBB10BD5B
:1016600000140040000000207047704770470000E1
:10167000F8B5016804460868CA684B6910F00F0F96
:101680004FF0000559D003F0010602F4907737437C
:1016900065D0C10705D0D10503D5616C41F00101CA
:1016A0006164410705D5D90703D0616C41F002019F
:1016B0006164810705D5D90703D0616C41F004014D
:1016C0006164010707D502F02001314303D0616C4A
:1016D00041F008016164616C00293AD0800604D5AC
:1016E000900602D5204600F0EBFE20684069616C50
:1016F000C0F38010090700D460B3204600F0B9FEA3
:1017000020684069400621D52068143050E8001F49
:1017100021F0400140E80012002AF5D1E06BA8B1A9
:1017200072490165E06BFEF702FF002811D0E06B03
:10173000016D01B0BDE8F040084783060FD5930660
:101740000DD52046BDE8F84000F0BABE2046FFF7B0
:101750008DFFF8BD2046FFF789FF6564F8BD266B55
:101760002023012E7ED1C6067CD5D6067AD5086800
:101770004868009048694FF0020640064DD5E26B7C
:10178000106840684FF480770004000C3AD0A18DB7
:10179000814237D9E085D069B8422DD020680C301D
:1017A00050E8001F21F4807140E80012002AF5D1B2
:1017B0002068143050E8001F21F0010140E80012B9
:1017C000002AF5D12068143050E8001F21F04001B4
:1017D00040E80012002AF5D184F8423025632068E1
:1017E0000C3050E8001F21F0100140E80012002AE0
:1017F000F5D1E06BFEF752FE6663A08DE18D401AD5
:1018000081B206E0A18D8142A8D1D069B842A5D1AC
:1018100066632046FFF729FFF8BDA08DE18D401AD1
:1018200081B2E08D0028F7D00029F5D020680C3077
:1018300050E8002F22F4907240E80027002FF5D1E5
:101840002068143050E8002F22F0010240E8002701
:10185000002FF5D184F84230256320680C3050E821
:10186000002F00E006E022F0100240E80023002BE9
:10187000F3D1CDE705062BD5150629D594F84100FF
:101880002128C9D1A068B0F5805F01D12069B0B12D
:10189000206A411C2162216800784860E08C401E6B
:1018A0000004000CE084B7D12068C16821F08001F9
:1018B000C1602068C16841F04001C160F8BD206A84
:1018C0000088C0F308004860206A801C2062E5E7B9
:1018D0004006F3D55006F1D5CA68204622F04002F2
:1018E000CA6084F8413000F0C4F9F8BD65240008EE
:1018F00070B5040004D094F84100002510B106E052
:10190000012070BD84F84050204600F023F82420C8
:1019100084F841002068C16821F40051C16020466C
:1019200000F030FE2068016921F4904101612068D7
:10193000416921F02A0141612068C16841F40051E8
:10194000C1606564202084F8410084F8420065632A
:10195000002070BD2DE9F04186B004461421684690
:10196000FEF7F9FC4549DFF810C123680024434A1B
:101970001039022503260827414863451FD1136803
:1019800043F400231360126802F4002205920A68EF
:1019900042F004020A60096802AB01F004010591FB
:1019A000B102CDE9001583E8D0006946FEF7E4FDF9
:1019B000002211463420FEF74BFF342037E0DFF8D9
:1019C000C4C0DFF8C480634536D1136843F4801384
:1019D0001360126802F4801205920A6842F0040251
:1019E0000A600A6802F0040205920A6842F00802DE
:1019F0000A60096802AB01F0080105914FF48051BB
:101A0000CDE9001583E8D0006946FEF7B5FD042056
:101A1000CDE9000502AB694683E8D0004046FEF7F9
:101A2000ABFD022211463520FEF712FF3520FEF7EE
:101A300001FF06B0BDE8F08114488342F9D1106877
:101A400040F400301060106800F400300590086821
:101A500040F0080008600868029400F00800059053
:101A60006020CDE900050720CDE9036069464046C6
:101A7000FEF782FDDDE70000004C004040380240E8
:101A80000008024000500040000C024000440040AA
:101A90002DE9F84F044690F842009A4616460D4646
:101AA000202802D00220BDE8F88FB5B1AEB10020E9
:101AB0006064222184F842102063FEF75BFEA68555
:101AC0008146E685A0684FF480582027404501D123
:101AD000206920B12E46002529E00120E3E70026F9
:101AE00025E04B46002220212046CDF800A000F042
:101AF000EAFD18B184F842700320D4E726B1A0684B
:101B000040451AD038B108E020684068C0F30800AA
:101B100025F8020B08E0206978B12068406800F0E1
:101B20007F0000BF06F8010BE08D401EE085E08DD0
:101B30000028D6D184F84270B5E720684068F1E704
:101B400090F84230202B01D00220704721B11AB109
:101B50000023036300F09CBD0120704710B50446CC
:101B600000680A49884204D1012209490948FFF75F
:101B7000E7FF09492068884207D105490122BDE8ED
:101B80001040091D0548FFF7DBBF10BD004C0040A9
:101B9000060000202C0200200050004074020020AB
:101BA0002DE9F843044690F84100984616460D4644
:101BB000202802D00220BDE8F88385B17EB1002044
:101BC0006064212084F84100FEF7D4FDA68481469C
:101BD000E684A0682027B0F5805F02D003E00120F2
:101BE000E9E7206910B12E4600250EE000260CE042
:101BF0008021204600F067FDA8B9C6B116F8010B98
:101C000021684860E08C401EE084E08C4B464FF039
:101C10000002CDF800800028EAD14FF040012046B4
:101C200000F051FD40B184F841700320C3E735F85E
:101C3000020BC0F30800E3E784F841700020BAE724
:101C400090F84130202B01D00220704779B172B159
:101C500001628284C28400214164212180F8411004
:101C60000068C16841F08001C16000207047012018
:101C700070477047FEE70000064B10B55C78C2F372
:101C80000723D2B214B103700A7010BD0B7002703A
:101C900010BD0000740000200122372101F0A2B91C
:101CA0002DE9F04387B014216846FEF754FB2F4816
:101CB0000024016841F004010160016801F00401A1
:101CC0000591016841F080010160016801F0800127
:101CD0000591016841F001010160016801F0010115
:101CE0000591016841F002010160016801F0020103
:101CF0000591016841F00801016000681C4F00F087
:101D00000800059000220F213846FEF72DFDDFF870
:101D10006480002204214046FEF726FDDFF858903B
:101D20004FF4F046002231464846FEF71DFD0F20D5
:101D300000900125CDE90154694638460394FEF729
:101D40001BFC04200090CDE90154694640460394F1
:101D5000FEF712FC0096CDE901546946484603940B
:101D6000FEF70AFC07B0BDE8F083000030380240FF
:101D70000008024000040240000C024010B58CB084
:101D800024216846FEF7E7FA0024164809944FF02C
:101D900080410A94C0E900144FF6FF71C0E9024186
:101DA0008021046181610320CDE900040120CDE997
:101DB00002040A210491CDE90540CDE907416946B5
:101DC0000848FFF72DF908B1FEF766FB099409A949
:101DD00004480A94FFF750F8002801D0FEF75CFB96
:101DE0000CB010BD7C00002010B58CB024216846DA
:101DF000FEF7B1FA00241748099415490A94C0E97E
:101E000000144FF6FF71C0E9024180210461816135
:101E10000320CDE900040120CDE902040A21049148
:101E2000CDE90540CDE9074169460A48FFF7F8F8D2
:101E300008B1FEF731FB099409A906480A94FFF797
:101E40001BF8002801D0FEF727FB0CB010BD0000E6
:101E500000040040C400002010B58CB02421684666
:101E6000FEF779FA00241748099415490A94C0E945
:101E700000144FF6FF71C0E90241802104618161C5
:101E80000320CDE900040120CDE902040A210491D8
:101E9000CDE90540CDE9074169460A48FFF7C0F89A
:101EA00008B1FEF7F9FA099409A906480A94FEF761
:101EB000E3FF002801D0FEF7EFFA0CB010BD0000E0
:101EC000000800400C01002010B58CB024216846A9
:101ED000FEF741FA00241748099415490A94C0E90D
:101EE00000144FF6FF71C0E9024180210461816155
:101EF0000320CDE900040120CDE902040A21049168
:101F0000CDE90540CDE9074169460A48FFF788F861
:101F100008B1FEF7C1FA099409A906480A94FEF728
:101F2000ABFF002801D0FEF7B7FA0CB010BD0000DF
:101F3000000C0040540100201CB500240F48009400
:101F40000D490194016040F28F61C0E9011442F231
:101F50000F718461C160FEF7D7FF08B1FEF79CFAEC
:101F60000094694605480194FEF786FF002801D0D9
:101F7000FEF792FA1CBD0000001400409C010020F6
:101F800010B592B000240F941C2168461094FEF7FF
:101F9000E2F9202107A8FEF7DEF92D482B49016060
:101FA000A721C0E901146321C0E903148021C0E91D
:101FB0000541FFF792FA08B1FEF76EFA0F940FA9E8
:101FC00023481094FEF758FF08B1FEF765FA602029
:101FD000CDE900040220CDE9020404940594002216
:101FE00069461B480694FFF712FA08B1FEF754FA47
:101FF000042269461648FFF70AFA08B1FEF74CFAC0
:10200000082269461248FFF702FA08B1FEF744FABF
:102010000C2269460E48FFF7FAF908B1FEF73CFAC0
:102020000794089409944FF400500A94CDE90B40AA
:1020300007A907480E94FEF7F5FE08B1FEF72CFA43
:102040000348FFF7B9F912B010BD000000040140C9
:10205000E40100200C4810B50A4901604FF4165104
:102060004160002181600C22C160C0E904128161DD
:10207000C161FFF73DFC002803D0BDE81040FEF72A
:102080000BBA10BD004C00402C0200200C4810B5CB
:102090000A4901604FF416514160002181600C2211
:1020A000C160C0E904128161C161FFF721FC002811
:1020B00003D0BDE81040FEF7EFB910BD005000405E
:1020C000740200200C4810B50A4901600B494160B8
:1020D000002181600C22C160C0E904128161C161EC
:1020E000FFF706FC002803D0BDE81040FEF7D4B986
:1020F00010BD000000440040BC02002040420F0020
:10210000FEE7FEE77047704710B5044600F0ECFEAE
:10211000204600F012FB2046FEF7B9F92046BDE844
:102120001040FFF7B9BDFEF72BBB000030B593B0F0
:1021300030216846FEF70FF914210CA8FEF70BF9C1
:102140001D480025016841F080510160006800F0E1
:10215000805011901948016841F480410160006885
:10216000022400F48040119001200390102004907C
:10217000009406940820CDE90750A820CDE9090471
:1021800004200B906846FEF781FC08B172B6FEE7AA
:102190000CA90F2081E831004FF4A0500F904FF4AC
:1021A0008050109005210CA8FEF784FB002801D078
:1021B00072B6FEE713B030BD4038024000700040F8
:1021C0000248016841F470010160704788ED00E049
:1021D0000148FFF759B800009C010020F0B50268E3
:1021E000274B284D284E294F294C4FF0804C9842C0
:1021F00009D0604507D0A84205D0B04203D0B8420C
:1022000001D0A04204D122F0700E4A6842EA0E02C8
:1022100098421BD0604519D0A84217D0B04215D0C3
:10222000B84213D0A04211D01A4DA8420ED01A4D78
:10223000A8420BD0194DA84208D0194DA84205D08C
:10224000184DA84202D0184DA84203D122F440757F
:10225000CA682A434D6922F080022A438D68C5620C
:102260000D688562984201D0A04201D109690163DD
:10227000016841F004010160012141610260F0BD8B
:10228000000001400004004000080040000C004035
:10229000000401400040014000440140004801406A
:1022A00000180040001C00400020004010B501F064
:1022B0001F030121046A99408C430462016A9A4019
:1022C0001143016210BD0000F0B5036A026A22F0FA
:1022D0000102026242688469124E24F073050C68A0
:1022E0002C4323F002058B682B430D4DA84201D0EF
:1022F000B04205D123F00807CB683B4323F0040329
:10230000A84201D0B04205D14D6922F44072154374
:102310008A692A4342608461496841630362F0BD6F
:102320000000014000040140F0B5026A036A23F096
:1023300010030362436884690D6824F4E64444EAA8
:1023400005248D6822F0200242EA05120F4D104E3E
:10235000A84201D0B04206D1CF6822F0800242EA02
:10236000071222F04002A84201D0B04207D14D69C5
:1023700023F4406343EA85038D6943EA85034360A0
:102380008461496881630262F0BD00000000014081
:1023900000040140F0B5026A036A23F4807303620B
:1023A0004368C46922F4007224F073050C68124E6D
:1023B0002C438D6842EA05220E4DA84201D0B0425E
:1023C00006D1CF6822F4006242EA072222F480623A
:1023D000A84201D0B04207D14D6923F4405343EAEB
:1023E00005138D6943EA05134360C4614968C163FD
:1023F0000262F0BD000001400004014030B5046AF3
:10240000026A22F4805202624268C3690D6823F4B2
:10241000E64343EA05238D6824F4005444EA053476
:10242000084DA84202D0084DA84204D14D6922F4BB
:10243000804242EA85124260C361496801640462D5
:1024400030BD000000000140000401400148FFF7DA
:102450000FB900002C0200200148FFF709B9000065
:102460007402002010B5806B0021C185FFF7FEF8D3
:1024700010BD01680C3151E8002F22F4907241E840
:102480000023002BF5D10168143151E8002F22F010
:10249000010241E80023002BF5D1016B012909D18C
:1024A00001680C3151E8002F22F0100241E80023AE
:1024B000002BF5D1202180F84210002101637047E4
:1024C00008B590F84210222901D0022008BD826888
:1024D0004FF480539A4201D1016921B1816A9A4235
:1024E0001BD04AB10AE00268816A5268C2F308024E
:1024F0000A80816A891C08E0026972B10268526828
:1025000002F07F020A70816A491C8162C18D491EF6
:102510000904090CC18503D01BE002685268F1E789
:102520000168CA6822F02002CA600168CA6822F401
:102530008072CA6001684A6922F001024A61202162
:1025400080F8421000214163026B012A03D0FFF79B
:1025500005FB002008BD016301680C3151E8002F24
:1025600022F0100241E80023002BF5D101680A682F
:10257000D20602D50A6849680091818DFFF775F887
:10258000E7E7000070B5044600680169E26821F4DD
:102590004051114301612169A068E2690843616902
:1025A000114308432168CA6849F20C639A43024305
:1025B000CA6020684169A26921F4407111434161F8
:1025C00031492068884202D03049884202D1FEF762
:1025D0001BFA01E0FEF708FAE269002319216425DD
:1025E0003226B2F5004F626828D0A0FB0101930F9C
:1025F0009200FDF739FE0146B0FBF5F06FF01802CE
:10260000504301EB800006EB0010B0FBF5F000F04A
:10261000F002B1FBF5F002EB0012B1FBF5F06FF048
:102620001803584301EB800006EB0010B0FBF5F0F7
:1026300000F00F0021681044886070BDA0FB01010C
:1026400092185B41FDF710FE0146B0FBF5F0020168
:10265000B1FBF5F06FF01803584301EB800006EB77
:10266000C000B0FBF5F000F0F80002EB4002B1FB57
:10267000F5F0584301EB800006EBC000B0FBF5F02D
:1026800000F00700D6E700000010014000140140F0
:1026900081628285C28500214164222180F8421036
:1026A000016921B10168CA6842F48072CA60016898
:1026B0004A6942F001024A610068C16841F02001A4
:1026C000C160002070472DE9F843984617460D4633
:1026D0000446089E24E0701C22D0FEF74BF8A0EBC5
:1026E0000800B0421AD8CEB12068C168490717D592
:1026F000802D15D0402D13D00168C94309070FD490
:1027000001680025406800902046FFF7B2FE0820CF
:10271000606484F840500120BDE8F8830320FBE7A3
:102720002068006835EA000004D00020B842D2D00A
:102730000020F1E70120F9E7FEE70122212100F066
:1027400051BC2DE9FC4115466C4606460A461F461B
:102750002046611CFFF790FA2A46E11CA01CFFF7F7
:102760008BFA3A46611D201DFFF786FA06236A465A
:102770002A21304600F02AF9BDE8FC810907090E3C
:10278000002804DB00F1E02080F80014704700F01E
:102790000F0000F1E02080F8141D70472DE9F04192
:1027A0006C4C0025A2796A2A2ED0681F302A1CD0D2
:1027B000312A1ED040000F21322A1DD0332A1FD0CB
:1027C000342A22D02046352A007A22D02146362AC1
:1027D0004E7A2BD0084640F2DC57C189038A8089A3
:1027E000372A42D0382A4DD073E005216170A1709C
:1027F00009E06070A07006E06070A1700A2002E03D
:102800006170A070F120E07062E06570A570E57005
:102810005EE0401CC0B22072022800D925724D49EA
:10282000012208314C48FFF70BFA51E0012802D091
:1028300002280BD04DE0E07920B101287ED1E5716E
:10284000A5714EE00120E071A5717CE0761CF0B22C
:102850006072032800D965723E494FF0FF330122B0
:1028600009313D48FFF79CF932E0012E04D0022ED9
:1028700004D0032E04D02CE032390BE0323B15E0BB
:10288000323836E0012E04D0022E0ED0032E2FD087
:102890001FE03231E18101F2992189B23B460022E9
:1028A0000320FFF74EFFE0893FE0323398B22082E9
:1028B000C0F5B97081B23B4600220620FFF741FF08
:1028C000208A002200F2852081B23B46092032E0B6
:1028D000A571E079012836D0002838D1207A012866
:1028E00035D100F0A1FABDE8F041FA20FDF732BE83
:1028F0003230A08100F2992081B23B4600220320B1
:10290000FFF71FFFA0893B46C0F5B97081B20022D6
:102910000620FFF716FFA0893B4600F2852081B212
:1029200000220920FFF70DFFA0893B46C0F5C870C3
:1029300081B200220C20FFF704FF00E007E0C8206E
:10294000FDF708FEC4E7BDE8F04100F055B8BDE86A
:10295000F0810000000000202C02002038B5002487
:1029600025460121684600F00FFA00280FD09DF897
:102970000010E0B260F30F2461F30704FF2901D1D6
:10298000FF2805D06D1CEDB20A2DEAD9002038BD14
:10299000012038BD0120FDF7DDBD000010B50C465B
:1029A0008AB2014664230448FFF772F808B1002098
:1029B00010BD204610BD0000BC0200208AB20146B6
:1029C00064230148FFF7ECB8BC020020F8B51C46B0
:1029D00015460E46074600F0D5F903200090234621
:1029E0002A463146384600F0B3FA00F0A1FA3846DC
:1029F000BDE8F840FDF714BD70B54FF4FA742346F6
:102A0000002240F235210320FFF79BFE23460022DF
:102A10004FF4EB710620FFF794FE2346002240F2AC
:102A200021210920FFF78DFE2346002219460C20A4
:102A3000FFF787FE4FF496752846FDF78BFD23467A
:102A4000002240F2FD210320FFF77BFE23460022F7
:102A50004FF487710620FFF774FE2346002240F2F0
:102A6000E9210920FFF76DFE2346002229460C20AC
:102A7000FFF767FE2046BDE87040FDF76BBD000024
:102A8000FDF786FEFFF752FBFFF70AF9FFF776F92D
:102A9000FFF7AAF9FFF7E0F9FFF716FAFFF712FBC5
:102AA000FFF74AFAFFF7D6FAFFF7F0FAFFF768FAEE
:102AB000012228492848FFF743F826490122091D29
:102AC0002648FFF73DF800212548FEF795FB042135
:102AD0002348FEF791FB00212248FEF78DFB0421DD
:102AE0002048FEF789FB00211F48FEF785FB0421E3
:102AF0001D48FEF781FB00211C48FEF77DFB0421E9
:102B00001A48FEF779FB00211948FEF729FD042138
:102B10001748FEF725FD08211548FEF721FD0C2179
:102B20001348FEF71DFD00F00FF900F02FF901200A
:102B300000F0D4F90F48FEF733FA064C0125A41F24
:102B4000207810B900F070F92570FFF727FE00F02B
:102B5000CFF9F5E7060000202C02002074020020C7
:102B60007C000020C40000200C0100205401002043
:102B7000E40100209C01002003480168486A00220B
:102B800040B24A62704700007C00002010B501226C
:102B9000D1020548FDF7E8FD0122BDE810401146CD
:102BA0000248FDF7E1BD0000000C024000080240B1
:102BB00070B5204C401A9FED1D0A6061A169DFEDE0
:102BC0001C0A411A01EE101A1B4DB8EEC11A21EE73
:102BD000001A00EE100AB8EEC00A00EE801ABDEE30
:102BE000C10A10EE101AC4E90601206A08446421E3
:102BF000206290FBF1F06062632802DB6320606278
:102C000007E06FF06201884201DC616205E00028A4
:102C100003DB00F013F8A08C03E0FFF7B7FFA08CF4
:102C20004042296800B2486370BD00000000404285
:102C30000000104200000020E401002010B5002236
:102C40004FF400610448FDF78FFD0122BDE81040FC
:102C500011460248FDF788BD000C02400008024002
:102C600003480168486A002240B24A627047000087
:102C7000C400002010B500224FF480510448FDF735
:102C800073FD0122BDE8104002210248FDF76CBD32
:102C9000000C02400008024070B5204C401A9FED25
:102CA0001D0AA062E16ADFED1C0A411A01EE101A4A
:102CB0001B4DB8EEC11A21EE001A00EE100AB8EE54
:102CC000C00A00EE801ABDEEC10A10EE101AC4E967
:102CD0000B01606B08446421606390FBF1F0A0631A
:102CE000632802DB6320A06307E06FF06201884283
:102CF00001DCA16305E0002803DB00F013F8208F5E
:102D000003E0FFF7B7FF208F4042296800B28863D5
:102D100070BD000000004042000010420000002092
:102D2000E401002010B5012211030548FDF71CFD48
:102D30000122BDE8104002210248FDF715BD000048
:102D4000000C02400008024070B50C4C0122D10278
:102D50002046FDF709FD0A4D002201212846FDF716
:102D600003FD012211032046FDF7FEFC2846BDE8C5
:102D7000704000220221FDF7F7BC0000000C024069
:102D800000080240FFF706BEFFF708BE10B501209D
:102D9000FFF7BAF90220FFF7B7F90320FFF7B4F9FC
:102DA0000420FFF7B1F90520FFF7AEF90620FFF781
:102DB000ABF90720FFF7A8F90820FFF7A5F90920CC
:102DC000FFF7A2F90A20FFF79FF90B20FFF79CF904
:102DD0000C20FFF799F9BDE81040012000F07EB803
:102DE00010B540F2DC542346002240F2FD210320BE
:102DF000FFF7A7FC234600224FF487710620FFF758
:102E0000A0FC2346002240F2E9210920FFF799FCAB
:102E1000234600224FF496710C20FFF792FCBDE888
:102E20001040C820FDF796BB70B540F2DC54234635
:102E300000224FF4E1710120FFF783FC23460022BA
:102E40004FF482710220FFF77CFC2346002240F2FF
:102E500099210320FFF775FC4FF4077523460022E4
:102E600029460420FFF76DFC23460022611005204F
:102E7000FFF767FC234600224FF4B9710620FFF7E5
:102E800060FC2346002229460720FFF75AFC234610
:102E90000022FA210820FFF754FC2346002240F2CA
:102EA00085210920FFF74DFC234600224FF4F071E5
:102EB0000A20FFF746FC2346002240F202310B2095
:102EC000FFF73FFC234600224FF4C8710C20FFF7A8
:102ED00038FCBDE87040FA20FDF73CBB0149487062
:102EE00070470000740000200022372100F07AB8FB
:102EF00070B50D4C0025A07A012807D002280FD00C
:102F0000032802D1FFF790FFA57270BD012006498A
:102F1000E072831E02460B310448FEF741FEF3E7E0
:102F2000FFF75EFFF0E70000000000202C02002009
:102F300010B5054C2178002904D00448FFF73EFD68
:102F40000020207010BD0000780000200403002045
:102F50002DE9FF478046DDF830904FF000008DF8F6
:102F600008004FF0FF008DF800008DF801001C46AE
:102F700015000F464FF002068DF802808DF8049080
:102F800007D0E01CC6B28DF803608DF805700621ED
:102F900002E08DF803600521684600F039F808EB7F
:102FA000060101EB090038448DF808007DB10021CD
:102FB00007E0685C9DF80820491C10448DF8080063
:102FC000C9B2A142F5D32146284600F021F89DF868
:102FD00008000121C0438DF8080002A800F018F88D
:102FE000BDE8FF8737B582B00C460546FFF7CAFE3D
:102FF00003200090012304AA21462846FFF7A8FFDA
:10300000FFF796FF2846FDF70BFA05B030BD00002C
:1030100030B5074B074C07E01A78802A04D210F825
:10302000015BA554521C1A70491EF5D2187830BDA8
:1030300078000020040300204FF04070E1EE100AF9
:1030400070470000000000000000010203040607B2
:103050000809000000000102030400007C300008A1
:10306000000000207C000000C4010008F8300008C7
:103070007C0000206C090000E00100080000000056
:103080000000000000000000000000000000000040
:103090000000000000000000000000000000000030
:1030A0000000000000000000000000000000000020
:1030B0000000000000000000000000000000000010
:1030C0000000000000000000000000000000000000
:1030D00000000000000000000000000000000000F0
:1030E0000100000010000000000000000024F400B7
:0830F0000100000000000000D7
:040000050800018965
:00000001FF
